{
  "contractName": "RockPaperScissors",
  "abi": [
    {
      "anonymous": false,
      "inputs": [
        {
          "indexed": true,
          "internalType": "bytes32",
          "name": "gameId",
          "type": "bytes32"
        },
        {
          "indexed": false,
          "internalType": "enum RockPaperScissors.Result",
          "name": "result",
          "type": "uint8"
        }
      ],
      "name": "GameResult",
      "type": "event"
    },
    {
      "inputs": [
        {
          "internalType": "bytes32",
          "name": "",
          "type": "bytes32"
        }
      ],
      "name": "games",
      "outputs": [
        {
          "internalType": "address",
          "name": "player",
          "type": "address"
        },
        {
          "internalType": "enum RockPaperScissors.Move",
          "name": "playerChoice",
          "type": "uint8"
        },
        {
          "internalType": "bool",
          "name": "played",
          "type": "bool"
        },
        {
          "internalType": "enum RockPaperScissors.Result",
          "name": "result",
          "type": "uint8"
        }
      ],
      "stateMutability": "view",
      "type": "function",
      "constant": true
    },
    {
      "inputs": [
        {
          "internalType": "bytes32",
          "name": "gameId",
          "type": "bytes32"
        },
        {
          "internalType": "uint8",
          "name": "choice",
          "type": "uint8"
        }
      ],
      "name": "playGame",
      "outputs": [],
      "stateMutability": "payable",
      "type": "function",
      "payable": true
    }
  ],
  "bytecode": "0x608060405234801561000f575f80fd5b50610af28061001d5f395ff3fe608060405260043610610028575f3560e01c8063ecfe63ca1461002c578063f579f88214610048575b5f80fd5b61004660048036038101906100419190610648565b610087565b005b348015610053575f80fd5b5061006e60048036038101906100699190610686565b61056d565b60405161007e94939291906107c3565b60405180910390f35b60018160ff161015801561009f575060038160ff1611155b6100de576040517f08c379a00000000000000000000000000000000000000000000000000000000081526004016100d590610860565b60405180910390fd5b670de0b6b3a76400003414610128576040517f08c379a000000000000000000000000000000000000000000000000000000000815260040161011f906108c8565b60405180910390fd5b5f8160ff16600381111561013f5761013e6106f0565b5b90505f805f8581526020019081526020015f2090503373ffffffffffffffffffffffffffffffffffffffff16815f015f9054906101000a900473ffffffffffffffffffffffffffffffffffffffff1673ffffffffffffffffffffffffffffffffffffffff16146101e4576040517f08c379a00000000000000000000000000000000000000000000000000000000081526004016101db90610956565b60405180910390fd5b805f0160159054906101000a900460ff1615610235576040517f08c379a000000000000000000000000000000000000000000000000000000000815260040161022c906109be565b60405180910390fd5b81815f0160146101000a81548160ff0219169083600381111561025b5761025a6106f0565b5b02179055506001815f0160156101000a81548160ff0219169083151502179055505f600160034261028c9190610a12565b6102969190610a6f565b90505f8160ff1660038111156102af576102ae6106f0565b5b90508060038111156102c4576102c36106f0565b5b8460038111156102d7576102d66106f0565b5b03610359576003835f0160166101000a81548160ff02191690836003811115610303576103026106f0565b5b02179055503373ffffffffffffffffffffffffffffffffffffffff166108fc670de0b6b3a764000090811502906040515f60405180830381858888f19350505050158015610353573d5f803e3d5ffd5b5061051d565b6001600381111561036d5761036c6106f0565b5b8460038111156103805761037f6106f0565b5b1480156103b0575060038081111561039b5761039a6106f0565b5b8160038111156103ae576103ad6106f0565b5b145b8061040f5750600260038111156103ca576103c96106f0565b5b8460038111156103dd576103dc6106f0565b5b14801561040e5750600160038111156103f9576103f86106f0565b5b81600381111561040c5761040b6106f0565b5b145b5b8061046d5750600380811115610428576104276106f0565b5b84600381111561043b5761043a6106f0565b5b14801561046c575060026003811115610457576104566106f0565b5b81600381111561046a576104696106f0565b5b145b5b156104ef576001835f0160166101000a81548160ff02191690836003811115610499576104986106f0565b5b02179055503373ffffffffffffffffffffffffffffffffffffffff166108fc671bc16d674ec8000090811502906040515f60405180830381858888f193505050501580156104e9573d5f803e3d5ffd5b5061051c565b6002835f0160166101000a81548160ff02191690836003811115610516576105156106f0565b5b02179055505b5b857f07d341162051eb669c068229f942f42f7993f79ee0f48cb0d94e03ef9876bbfa845f0160169054906101000a900460ff1660405161055d9190610aa3565b60405180910390a2505050505050565b5f602052805f5260405f205f91509050805f015f9054906101000a900473ffffffffffffffffffffffffffffffffffffffff1690805f0160149054906101000a900460ff1690805f0160159054906101000a900460ff1690805f0160169054906101000a900460ff16905084565b5f80fd5b5f819050919050565b6105f1816105df565b81146105fb575f80fd5b50565b5f8135905061060c816105e8565b92915050565b5f60ff82169050919050565b61062781610612565b8114610631575f80fd5b50565b5f813590506106428161061e565b92915050565b5f806040838503121561065e5761065d6105db565b5b5f61066b858286016105fe565b925050602061067c85828601610634565b9150509250929050565b5f6020828403121561069b5761069a6105db565b5b5f6106a8848285016105fe565b91505092915050565b5f73ffffffffffffffffffffffffffffffffffffffff82169050919050565b5f6106da826106b1565b9050919050565b6106ea816106d0565b82525050565b7f4e487b71000000000000000000000000000000000000000000000000000000005f52602160045260245ffd5b6004811061072e5761072d6106f0565b5b50565b5f81905061073e8261071d565b919050565b5f61074d82610731565b9050919050565b61075d81610743565b82525050565b5f8115159050919050565b61077781610763565b82525050565b6004811061078e5761078d6106f0565b5b50565b5f81905061079e8261077d565b919050565b5f6107ad82610791565b9050919050565b6107bd816107a3565b82525050565b5f6080820190506107d65f8301876106e1565b6107e36020830186610754565b6107f0604083018561076e565b6107fd60608301846107b4565b95945050505050565b5f82825260208201905092915050565b7f496e76616c69642063686f6963650000000000000000000000000000000000005f82015250565b5f61084a600e83610806565b915061085582610816565b602082019050919050565b5f6020820190508181035f8301526108778161083e565b9050919050565b7f496e73756666696369656e742066756e647300000000000000000000000000005f82015250565b5f6108b2601283610806565b91506108bd8261087e565b602082019050919050565b5f6020820190508181035f8301526108df816108a6565b9050919050565b7f596f7520617265206e6f7420617574686f72697a656420746f20706c617920745f8201527f6869732067616d65000000000000000000000000000000000000000000000000602082015250565b5f610940602883610806565b915061094b826108e6565b604082019050919050565b5f6020820190508181035f83015261096d81610934565b9050919050565b7f47616d652068617320616c7265616479206265656e20706c61796564000000005f82015250565b5f6109a8601c83610806565b91506109b382610974565b602082019050919050565b5f6020820190508181035f8301526109d58161099c565b9050919050565b5f819050919050565b7f4e487b71000000000000000000000000000000000000000000000000000000005f52601260045260245ffd5b5f610a1c826109dc565b9150610a27836109dc565b925082610a3757610a366109e5565b5b828206905092915050565b7f4e487b71000000000000000000000000000000000000000000000000000000005f52601160045260245ffd5b5f610a7982610612565b9150610a8483610612565b9250828201905060ff811115610a9d57610a9c610a42565b5b92915050565b5f602082019050610ab65f8301846107b4565b9291505056fea2646970667358221220ec8f1541392fe26351c606a30f4d6595c32e152be087f7c7ed74ff0f2dd87e0864736f6c63430008150033",
  "immutableReferences": {},
  "source": "// SPDX-License-Identifier: MIT\n//Comment\npragma solidity ^0.8.0;\n\ncontract RockPaperScissors {\n    enum Move { None, Rock, Paper, Scissors }\n    enum Result { None, Win, Loss, Draw }\n\n    struct Game {\n        address player;\n        Move playerChoice;\n        bool played;\n        Result result;\n    }\n\n    mapping(bytes32 => Game) public games;\n\n    event GameResult(bytes32 indexed gameId, Result result);\n\n    function playGame(bytes32 gameId, uint8 choice) external payable {\n        require(choice >= 1 && choice <= 3, \"Invalid choice\");\n        require(msg.value == 1 ether, \"Insufficient funds\");\n\n        Move playerChoice = Move(choice);\n        Game storage game = games[gameId];\n        require(game.player == msg.sender, \"You are not authorized to play this game\");\n        require(!game.played, \"Game has already been played\");\n\n        game.playerChoice = playerChoice;\n        game.played = true;\n\n        // Generate random choice for the contract\n        uint8 contractChoice = uint8(block.timestamp % 3) + 1;\n        Move contractMove = Move(contractChoice);\n\n        // Determine the game result\n        if (playerChoice == contractMove) {\n            game.result = Result.Draw;\n            payable(msg.sender).transfer(1 ether); // refund\n        } else if ((playerChoice == Move.Rock && contractMove == Move.Scissors) ||\n                   (playerChoice == Move.Paper && contractMove == Move.Rock) ||\n                   (playerChoice == Move.Scissors && contractMove == Move.Paper)) {\n            game.result = Result.Win;\n            payable(msg.sender).transfer(2 ether); // player wins and gets rewarded 1 ether\n        } else {\n            game.result = Result.Loss;\n            // Player loses, no reward\n        }\n\n        emit GameResult(gameId, game.result);\n    }\n}\n",
  "sourcePath": "/Users/ryanhavens/Desktop/CryptoGambling/contracts/Rock.sol",
  "compiler": {
    "name": "solc",
    "version": "0.8.21+commit.d9974bed.Emscripten.clang"
  },
  "schemaVersion": "3.4.16",
  "updatedAt": "2024-05-04T19:23:37.416Z",
  "networkType": "ethereum",
  "devdoc": {
    "kind": "dev",
    "methods": {},
    "version": 1
  },
  "userdoc": {
    "kind": "user",
    "methods": {},
    "version": 1
  }
}